:020000040800F2
:10000000E8F700204501000821920108054E01088B
:10001000198D010855290008194D0308000000003A
:100020000000000000000000000000005DE2020887
:100030003D92000800000000A1BA01081911030850
:100040005F0100085F0100085F0100085F01000810
:100050005F0100085F0100085F0100085F01000800
:1000600051D300085F0100085F0100085F0100082C
:100070005F0100085F0100085F0100085F010008E0
:100080005F0100085F0100085F0100085F010008D0
:10009000ED4203085F0100085F01000889D30008F2
:1000A0005F0100085F0100085F0100085F010008B0
:1000B00031120308E91303085F0100085F0100081B
:1000C0005F0100085F0100085F0100085F01000890
:1000D0005F0100086D3B03083D3C03082D3D03080C
:1000E0005F0100085F010008714003085F0100081C
:1000F0005F0100085F0100085F0100085F01000860
:100100005F01000801D602085F0100085F010008D6
:100110005F0100085F010008F914030829160308AD
:100120005F0100085F0100085F0100085F0100082F
:10013000DFF80CD000F00EFB0048004715780308EC
:10014000E8F700200648804706480047FEE7FEE73C
:10015000FEE7FEE7FEE7FEE7FEE7FEE7FEE7FEE777
:10016000A1110308310100082DE9F05F05460020C8
:1001700092469B4688460646814640241BE0284618
:1001800041464746224600F0E4F853465A46C01A14
:10019000914110D311461846224600F0CBF82D1A93
:1001A00067EB01084F4622460120002100F0C2F80B
:1001B00017EB00094E41201EA4F10104DFDC484684
:1001C00031462A464346BDE8F09F40EA01039B07BB
:1001D00003D009E008C9121F08C0042AFAD203E0BC
:1001E00011F8013B00F8013B521EF9D27047D2B220
:1001F00001E000F8012B491EFBD270470022F6E710
:1002000010B513460A4604461946FFF7F0FF20468C
:1002100010BD421E12F8013F002BFBD111F8013B2B
:1002200002F8013B002BF9D1704730B505462A464C
:100230000B4612F8010B13F8014B08B1A042F8D09D
:100240001CB1002802D06D1CF1E7284630BD10B566
:10025000044604E00B7800F8013B03B1491C521E30
:10026000F8D2204610BDCAB2401E10F8011F8A42C3
:1002700002D00029F9D100207047421C10F8011B60
:100280000029FBD1801A704710B5002200E0521CF3
:10029000835C8C5CA34201D1002BF8D1D8B2E1B2CF
:1002A000401A10BD30B504460020034600E05B1C38
:1002B000934203D2E05CCD5C401BF8D030BD0346D6
:1002C00011F8012B00F8012B002AF9D118467047CC
:1002D00030B505460020034600E05B1C934205D282
:1002E000EC5CC85C201A01D1002CF6D130BD70B591
:1002F000064635F079FC046805460A22002130469E
:1003000000F037F82C6070BD30B50B460146002078
:100310002022012409E021FA02F59D4205D303FAC7
:1003200002F5491B04FA02F52844151EA2F1010248
:10033000F1DC30BD202A04DB203A00FA02F1002073
:1003400070479140C2F1200320FA03F31943904013
:100350007047202A04DB203A21FA02F0002170477E
:1003600021FA02F3D040C2F120029140084319461D
:1003700070472DE9F04791460F4680460446002617
:1003800014F8015B2DB100F009FA0068405DC00768
:10039000F6D12B2D02D02D2D18D0641E4A46394699
:1003A000204600F0FFF927B13968A14201D1C7F812
:1003B000008071054FF002040BD54042002803DD98
:1003C00035F012FC0460A007BDE8F08746F48066B3
:1003D000E4E70028F8DA35F007FC04606FF000402D
:1003E000F2E72DE9FE4F804681EA0300C00F0C467C
:1003F000009021F0004123F00045B8EB0200A94134
:1004000005D24046214690461C460B46024623F044
:100410000040104347D0270DC7F30A00C3F30A5129
:100420000290401A019040286BDAC3F3130040F4A5
:10043000801B0098924620B10023D2EB030A63EBA5
:100440000B0B01985946C0F140025046FFF772FF6E
:1004500006460D4650465946019A00F08DF910EBBC
:1004600008006141002487EA115284EAE7731A43C5
:1004700040D0009A62B3019A012A4FEA075215DC74
:10048000001B61EB02014FF0004202EA0752CDE986
:100490000042001C41F5801132462B4600F0E0F985
:1004A00003B0BDE8F08F40462146F9E7001B61EB41
:1004B0000201001C41F5801300185B412018A2F5D1
:1004C000001747EB030140EAD570B6196D4111E002
:1004D0006D084FEA360645EAC0754FEA0752001B21
:1004E00061EB0201001C41F5801149084FEA300020
:1004F0000019514132462B4603B0BDE8F04F00F0E1
:10050000A0B90098012240000023D0EB020263EB67
:10051000E073009821464FEAE074B8EB000061EB0D
:100520000401E9E783F000435BE781F0004158E70D
:100530002DE9FE4F81EA030404F0004421F000415C
:1005400000944FF0000B23F0004350EA01045ED00A
:1005500052EA03045BD0C3F30A54C1F30A552C4496
:10056000A4F2F3340194A0FB0254C1F3130141F44B
:100570008011C3F3130343F4801301FB024400FB17
:10058000034E840A970A44EA815447EA8357A4FB3E
:10059000076802958D0A05FB07854FEA932C04FB3B
:1005A0000C542705029D4FEA065847EA1637B5EB6B
:1005B00008056EEB070C870E920E47EA811742EA98
:1005C0008312A7FB0201B6EB0B0164EB00042B0DB9
:1005D00043EA0C335E1844EB1C50DA465146E7FB05
:1005E0000201C5F313044FEA0B3343EA14534FEAF5
:1005F0000432019C43EA0603A4F10C040294009C1B
:10060000CDE900B400F02CF903B0BDE8F08F002074
:100610000146F9E72DE9F04D81EA030404F0004BAF
:1006200021F0004514464FF0000A23F0004150EA43
:10063000050220D054EA01021DD0C5F30A57024634
:10064000C5F31303C1F31300C1F30A5640F4801538
:1006500043F48013A7EB0608101BD64608F2FD38BA
:1006600073EB050002D308F1010801E092185B4129
:10067000B8F1000F03DA00200146BDE8F08D00203C
:100680004FF48011064684460EE0171B73EB0507F6
:1006900005D3121B63EB050306434CEA010C490822
:1006A0004FEA300092185B4150EA0107EDD152EA5F
:1006B000030012D082EA040083EA0501084305D052
:1006C000101BAB4106D20122002306E000224FF0AE
:1006D000004302E06FF0010253101AEB06004CEBEE
:1006E000085110EB0A0041EB0B01BDE8F04D00F0A2
:1006F000A8B8C1F30A52C1F3130140F2FF3341F429
:1007000080119A4202DA00200146704740F23343DA
:100710009A42A2F2334202DC5242FFF71ABEFFF7BE
:1007200009BE000030B5041E71F1000404DB4FF077
:100730000044404264EB0101141E73F1000405DB28
:100740001C464FF00043524263EB0403994208BF3A
:10075000904230BD064C074D06E0E06840F00103D2
:1007600094E8070098471034AC42F6D3FFF7E4FC56
:10077000FC0005081C010508202A06DBCB17203ADF
:1007800041FA02F043EAE07306E041FA02F3D04096
:10079000C2F1200291400843194670470048704753
:1007A00098E104082DE9F05F82460078002715469D
:1007B0008B460AF10104B946302801D09DB113E0FF
:1007C00014F8010B0127782803D0582801D045B12F
:1007D0000AE00DB1102D07D10027102514F8010BE8
:1007E00002E0082500E00A250026B0460EE005FBE1
:1007F000080005FB06F1012701EB10461FFA80F8FF
:10080000B6F5803F00D3B94614F8010B294600F035
:1008100075F80028EBDABBF1000F05D00FB1641EAC
:1008200000E05446CBF80040B9F1000F06D035F097
:10083000DBF902210160C81EBDE8F09F48EA0640CE
:10084000FAE710B5141E73F1000408DA401C41F1F8
:10085000000192185B411A4301D120F0010010BD44
:100860002DE9F04D92469B4611B1B1FA81F202E0BA
:10087000B0FA80F220329046FFF75CFD04460F4646
:1008800040EA0A0041EA0B0153465A46084313D096
:10089000114653EA010019D0C8F140025046FFF753
:1008A00058FD05460E46504659464246FFF742FD62
:1008B000084305D0012004E020463946BDE8F08D0C
:1008C0000020054346EAE0762C4337430A98630547
:1008D000E40AA0EB08000022FD0A44EA47540A306B
:1008E00002D500200146E9E7010510196941DDE95B
:1008F000084500196941BDE8F04DA2E73A2800D249
:10090000303820F02002412A01D3A2F1370088427A
:1009100001D34FF0FF30704770B58C1810F8015BB1
:1009200015F0070301D110F8013B2A1106D110F888
:10093000012B03E010F8016B01F8016B5B1EF9D18C
:100940002B0705D40023521E0DD401F8013BFAE712
:1009500010F8013BCB1A921C03E013F8015B01F87D
:10096000015B521EF9D5A142D8D3002070BD000012
:1009700000B591B001214FF404702AF0BBF80121B9
:1009800008462AF097F84FF440402AF087F82648A6
:1009900008F0AEF825480190254802900020039009
:1009A00003200490002005908020069040000790CE
:1009B000800008902020099000020A9000200B90EF
:1009C00001A9194808F03AF90121174808F084F8FC
:1009D00000200C9001208DF834008DF835004FF484
:1009E00060200E9000200F9003208DF840000CA98D
:1009F0000E484C3800F034F8072301220E210B4832
:100A00004C3800F055F8072302220F2107484C38D4
:100A100000F04EF803231A460A2104484C3800F02F
:100A200047F811B000BD0000080002404C2401400E
:100A30008000002021B1826842F00102826003E060
:100A4000826822F001028260704721B1826842F41C
:100A50008072826003E0826822F480728260704754
:100A600030B502460020002350680F4C20400D791D
:100A70000C6844EA05242043506090680B4C2040E9
:100A8000D1E902542C434D7944EA45042043906057
:100A9000D06A20F470000C7C641EE4B2234340EA68
:100AA0000350D06230BD0000FFFEF0FFFDF7F1FF04
:100AB000F0B504460D4600200021092D11DDE06847
:100AC000A5F10A0606EB4607072606FA07F1884352
:100AD000A5F10A0606EB460603FA06F10843E060B4
:100AE0000CE0206905EB4507072606FA07F1884365
:100AF00005EB450603FA06F108432061072A0FDAE1
:100B0000606B561E06EB86071F2606FA07F1884320
:100B1000561E06EB860605FA06F10843606322E0DE
:100B20000D2A0FDA206BD61F06EB86071F2606FA62
:100B300007F18843D61F06EB860605FA06F108433F
:100B4000206310E0E06AA2F10D0606EB86071F267F
:100B500006FA07F18843A2F10D0606EB860605FAB0
:100B600006F10843E062F0BD21B1826842F4A002C0
:100B7000826003E0826822F4A0028260704701462E
:100B8000302904DB392902DC01F00F0070474129CC
:100B900001DB462903DD612905DB662903DC01F061
:100BA0000F000930F2E70020F0E700002DE9F041E6
:100BB00005460E46287800F080004D4908703078D0
:100BC00000F080004B490870287800F007004A497F
:100BD0000870307800F00700484908701121484833
:100BE000FFF70CFB11214748FFF708FB4448D5F8F5
:100BF00001100160D5F8051041604248D6F8011097
:100C00000160D6F8051041603B4800783B490978FF
:100C100088420FDD07E039480078401C37490870EA
:100C2000384800F0BEFF34480078344909788842DB
:100C3000F1DC14E0304800783049097888420EDA57
:100C400007E02D480078401C2B4908702C4800F024
:100C5000A8FF29480078294909788842F1DB072450
:100C600025E02748005D2749095D884200DD20E036
:100C70002348005D2349095D884216DA002409E013
:100C80001F48075D1F48005D1D4908551D48075551
:100C9000601C04B2082CF3DB16480778144800786F
:100CA000144908701248077003E0601E04B2002C5B
:100CB000D7DA00BF0E4800780E490978884202D181
:100CC00000F024F801E02FF085FE094800780E4975
:100CD000087007F0F3F90C4800782870084801689C
:100CE000C5F801104068C5F80500BDE8F0810000B6
:100CF0000702002008020020090200200A0200204A
:100D000014290020252900200602002070B50021AA
:100D10000024002030E01A4D2D5C05F00F05184E20
:100D2000365C361106EB860605EB4605EAB2154D34
:100D30002D5C05F00F05134E365C361106EB86066A
:100D400005EB4605EBB2D5182544E9B2632904DD6D
:100D5000A1F16405E9B2012400E000240A2591FB19
:100D6000F5F605FB16150A2691FBF6F605EB0615BA
:100D7000034E3554451C28B21028CCDB70BD000052
:100D8000142900202529002010B511F05BF9144822
:100D900090F8C20613490968084412490860002007
:100DA0000F4981F8590F15E00D4890F8591F00F2CE
:100DB000C46000EBC10100F63C300A680263496878
:100DC000416300F05BFA064890F8590F401C044953
:100DD00081F8590F024890F8590F0628E4DB10BD3E
:100DE000682900200002002010B511F03BF91448DA
:100DF00090F8F70613490968084412490860002072
:100E00000F4981F8590F15E00D4890F8591F00F26D
:100E1000F96000EBC10100F607300A680263496817
:100E2000416300F02BFA064890F8590F401C044922
:100E300081F8590F024890F8590F0628E4DB10BDDD
:100E4000682900200002002010B51948B0F87F1F63
:100E5000B0F82907814229DA11F0CEF9144890F848
:100E60002D071449096808441249086000201049F8
:100E700081F8590F15E00E4890F8591F00F23270B2
:100E800000EBC10100F6CE200A68026349684163A5
:100E900000F0F4F9064890F8590F401C044981F815
:100EA000590F034890F8590F0628E4DB10BD0000E5
:100EB000682900200002002010B511F0FBF9144849
:100EC00090F8650713490968084412490860002032
:100ED0000F4981F8590F15E00D4890F8591F00F29D
:100EE000677000EBC10100F699200A680263496847
:100EF000416300F0C3F9064890F8590F401C0449BB
:100F000081F8590F024890F8590F0628E4DB10BD0C
:100F1000682900200002002010B5194890F8321FFF
:100F200090F89707814229DA11F0D4F9144890F823
:100F30009A071449096808441249086000201049BA
:100F400081F8590F15E00E4890F8591F00F29C7077
:100F500000EBC10100F664200A680263496841633E
:100F600000F08CF9064890F8590F401C044981F8AC
:100F7000590F034890F8590F0628E4DB10BD000014
:100F8000682900200002002010B52B48D0F8A104E9
:100F90002A4908600020284981F8590F15E02648A1
:100FA00090F8591F00F28F6000EBC10100F671301C
:100FB0000A6802634968416300F060F91E4890F8CE
:100FC000590F401C1C4981F8590F1B4890F8590FC4
:100FD0000628E4DB1848B0F8811FB0F8CC0781423E
:100FE00029DA11F0E9F9144890F8D0071349096893
:100FF00008441249086000200F4981F8590F15E094
:101000000D4890F8591F00F2D27000EBC10100F6B4
:101010002E200A6802634968416300F02FF90648F0
:1010200090F8590F401C044981F8590F024890F874
:10103000590F0628E4DB10BD6829002000020020BB
:101040001CB52A48B0F8FD4E294813F017FC284B70
:10105000DA78997818880CF08FFA26494881B4F527
:10106000006F3DDA4FF4004101EB0410214A0A32CF
:10107000102135F023FD1F490C800020488000908E
:1010800001904FF4804101EBC4006A46082135F01D
:1010900015FD1648B0F8FD0E401C81B21348A0F8AB
:1010A000FD1EC4F3090413480088B0F5806F04DA0C
:1010B00010480089B0F5804F09D00E480088B0F57F
:1010C000806F11DB0B480089B0F5C04F0CD1094887
:1010D0001A3000EBC400009901600199416003E0FF
:1010E0005A20024981F8330F1CBD000068290020F6
:1010F00060600020CB6C002010B512F0D9F81448C5
:1011000090F808081349096808441249086000204B
:101110000F4981F8590F15E00D4890F8591F00F656
:101120001A0000EBC10100F6E6100A680263496884
:10113000416300F0A3F8064890F8590F401C044999
:1011400081F8590F024890F8590F0628E4DB10BDCA
:10115000682900200002002010B54FF0FF3012F087
:1011600071F9144890F8190813490968084412499C
:10117000086000200F4981F8590F15E00D4890F8DC
:10118000591F00F64A0000EBC10100F6B6100A68CC
:1011900002634968416300F071F8064890F8590FFE
:1011A000401C044981F8590F024890F8590F06284D
:1011B000E4DB10BD682900200002002010B512F009
:1011C00071F9144890F880081349096808441249D5
:1011D000086000200F4981F8590F15E00D4890F87C
:1011E000591F00F6870000EBC10100F679100A686C
:1011F00002634968416300F041F8064890F8590FCE
:10120000401C044981F8590F024890F8590F0628EC
:10121000E4DB10BD682900200002002010B512F0A8
:10122000C7F9144890F8BA081349096808441249E4
:10123000086000200F4981F8590F15E00D4890F81B
:10124000591F00F6BC0000EBC10100F644100A680B
:1012500002634968416300F011F8064890F8590F9D
:10126000401C044981F8590F024890F8590F06288C
:10127000E4DB10BD682900200002002070B566483C
:1012800090F8440F00B170BD644890F8300200B986
:10129000F9E76348407800B9F5E75F4890F84C0FEC
:1012A00000B1F0E700245D4890F8300200F0010042
:1012B00018B15B484078204484B2584890F8300216
:1012C00000F0020018B156484078204484B25348D8
:1012D00090F8300200F0040018B1514840782044E2
:1012E00084B24E4890F8300200F0080018B14C4823
:1012F0004078204484B22546474890F8590F062884
:101300005CD2DFE800F003061B30455A00240025BC
:1013100055E04148B0F82D0500B9B4E73E48B0F8B3
:101320002D053D49B1F87B1F401A684385B23A4804
:10133000B0F87B0F401E604384B240E0364890F81E
:10134000560900B99FE7344890F85609324991F898
:10135000661F401A401E684385B22F4890F8660FFA
:10136000604384B22BE02C4890F8870900B98AE7E3
:10137000294890F88709284991F82F1F401A401EE4
:10138000684385B2244890F82F0F604384B216E07A
:10139000214890F8880900B975E71F4890F8880936
:1013A0001D4991F8511F401A401E684385B21A48E2
:1013B00090F8510F604384B201E064E700BF00BFC2
:1013C00018480068204417490860144890F8300213
:1013D00000F0010008B100F0F9F8104890F8300270
:1013E00000F0020008B100F0F1F80C4890F830026B
:1013F00000F0040008B100F0E9F8084890F8300265
:1014000000F0080008B100F0E1F806480068284440
:101410000449086000BF36E76829002068390020C9
:10142000983B0020000200203EB5184890F83A0F83
:1014300058BB164890F8370F022826D0134890F86A
:10144000440F10BB114890F84A0F08B1032400E084
:1014500000240F480168009141680191007A8DF8DD
:1014600008000C4820440188ADF8011080788DF800
:10147000030009496846FFF799FB06482044BDF878
:10148000011001809DF8031081703EBD6829002085
:10149000CCBC030875380020D5BC030870B50446E1
:1014A0000126184890F8620F4440164890F8630FE0
:1014B000444000250EE004EA060038B105EBC50102
:1014C000114A8818A2F1A201FFF770FB7006060E00
:1014D000681CC5B2082DEEDB0B49A23901F187006B
:1014E000FFF764FB0849483901F13600FFF75EFB5E
:1014F000044890F8630F034981F8640F002081F8D5
:10150000630F70BD682900209448002010B513F0C7
:1015100095F9144890F8EF081349096808441249EE
:10152000086000200F4981F8590F15E00D4890F828
:10153000591F00F6F10000EBC10100F60F100A6818
:10154000026349684163FFF799FE064890F8590F16
:10155000401C044981F8590F024890F8590F062899
:10156000E4DB10BD682900200002002010B513F054
:1015700075F9144890F82409134909680844124978
:10158000086000200F4981F8590F15E00D4890F8C8
:10159000591F00F6261000EBC10100F6DA000A68B8
:1015A000026349684163FFF769FE064890F8590FE6
:1015B000401C044981F8590F024890F8590F062839
:1015C000E4DB10BD682900200002002010B540486F
:1015D00090F84A0F60B13E4890F8590F012807D0A3
:1015E0003C4840783C49096808443B49086010BDC4
:1015F000394804682AF070FC37480460344890F891
:10160000260F38B134F03AFA324840782044324953
:1016100008605AE02F48807890B12E482B30407AED
:1016200000F0080060B92A4890F8680F40B92848CF
:1016300090F8370F20B9294926482B30FFF7B6FA22
:101640002448C07868B123482B30407A00F08300EA
:1016500020492B31487201F68941A1F54860FFF716
:10166000A5FA1C48007920B11D49A1F61D40FFF7DD
:101670009DFA18484079A0B119497E31A1F69240EF
:101680002FF0E8F913482B30C07E00F0800040B105
:101690001048463013490A6802604A684260097A75
:1016A00001720C48807928B10D491B31A1F6264002
:1016B000FFF77CFA0748C07928B109491231A1F631
:1016C0001440FFF773FA34F0D9F900BF8FE7000038
:1016D00068290020983B002000020020D5BC0308A8
:1016E000F2470020CCBC030838B50546681E00B29E
:1016F00060490880002060490870604981F8330F14
:1017000081F8230F02205E49087001205D490870AE
:101710001F205D49087047205849A1F8790F1F2004
:101720005A490873002005F08FFE35F0EFFB0120C9
:1017300035F0A8FF27F07CFD00BF002005F0CAFCB3
:101740000090002002F086FBBDF8000000B9F4E72D
:10175000BDF80010C8B210F01FFE04460E2C00D1D8
:1017600050E00C2C13D1454890F8710F00F0100098
:10177000A8B1474890F8DC0600F0200018B103201B
:1017800005F0A8FC02E0022005F0A4FCD5E734B97E
:10179000009815F065FE012005F056FECDE7BDF876
:1017A000000000F47F40B0F5807F23D1384890F8E6
:1017B000DC0600F02000E8B9BDF80000C0B2402807
:1017C00017DABDF800002D4981F84F0F084690F850
:1017D0004F1F00F2214000EB410001882D48A0F886
:1017E000821E02F0D3FB28B12548007800B909E039
:1017F000A3E7A2E7009815F033FE27488079274930
:1018000008709AE700BF1D48D0F8710F20F4887067
:101810001A49C1F8710F032005F05CFC35F076FB26
:1018200043201649A1F8790FD1F8A50F0422002111
:1018300009F042FC002010490870104981F8330F6C
:10184000124908730E4908700E4908700E49087055
:1018500005F0FAFD42F210710E48A0F8821E002039
:10186000064981F8430F4E200D490870002035F0DD
:1018700009FF38BDB2020020BC0200206829002008
:10188000B9020020BA020020BB02002050600020F4
:101890006859002068390020A8240020BD020020DB
:1018A000BE020020002070472DE9F04106460C469C
:1018B0002EB92F4890F8200400F00F0040B9002EF8
:1018C00053D02B4890F8200400F0F00000284CD0B2
:1018D000277800202070264890F8200400F00F059B
:1018E0001DB9234890F820040509012D06D0022DCA
:1018F00012D0032D1FD0042D35D128E0607800F0E0
:101900000F00052803DB1B492046FFF74FF96078DD
:1019100000F0F000607026E0657800206070742DA3
:1019200004DD15492046FFF741F903E0242D01DDD0
:101930005020607017E0607800F0F00500206070C3
:10194000502D03DB0C492046FFF730F90BE060789F
:1019500000F0F00500206070002D03DD06492046F0
:10196000FFF724F900BF00BF2770BDE8F081000039
:1019700068290020DEBC0308E7BC030810B5044654
:101980003048007830B920224F212F48FEF72FFC35
:1019900005F009FF2D4890F8710F00F010000028A5
:1019A00038D12F2C03D13020FFF7E8FF30242E2C24
:1019B0001AD1264890F8300FA0B90120234981F8A8
:1019C000300F2048007828BB30201F4981F84D0097
:1019D0002E2081F84E00002081F84F000220194986
:1019E000087010BD0020FCE7184890F8300F88B14F
:1019F000302C0FDB392C0DDC144890F8300F032805
:101A000001DD0020EDE7114890F8300F401C0F4930
:101A100081F8300F0B48007828B14E220A49491C42
:101A2000481EFEF7D2FB084880F84E4000200649C9
:101A300081F84F0003480078401C024908700846AE
:101A40000078CEE7BD0200206960002068290020F0
:101A500010B501460A12CBB202F00F00141104EBCC
:101A6000840400EB440000EBC00404EB00104FF6CC
:101A7000FF7404EA800203F00F001C1104EB8404DD
:101A800000EB4400104480B210BD00002DE9FF4778
:101A900082460C4691461D46DDE90D780C9E1348A2
:101AA00090F8E403012802D0022812D108E02B4666
:101AB0004A460FA150468DE8D00134F06FF811E08E
:101AC0004B46224612A150468DE8E00134F066F8FC
:101AD00008E04B462A4606A150468DE8D00134F076
:101AE0005DF800BF00BFBDE8FF8700006829002047
:101AF000253032782D253032782D3230253032782D
:101B000020253032783A253032783A253032780044
:101B10003230253032782D253032782D253032780C
:101B200020253032783A253032783A253032780024
:101B300030B502460C460023062113E0505C99287C
:101B40000EDC505C00F00F00555C2D1105EB850597
:101B500000EB450003EBC30505EB031500EB850324
:101B6000481E01B20029E9DA236098B230BD30B5D1
:101B700000240F30002101E0401E491C102902DA28
:101B80000578002DF8D009E005782D072A0E057894
:101B90002B091D1905701446401E491C1029F3DB42
:101BA00030BD30B50024002109E005782D072A0E4C
:101BB00005782B09151905701C46401C491C102975
:101BC000F3DB30BD0146072005E04A1C125C02B180
:101BD00003E0421E10B20028F7DA00BF421C10B228
:101BE00000280BDD421E4B1C9A5C0F2A04DA0122EE
:101BF000C2EB400210B201E0420010B20A7802F0DB
:101C000080020AB1421C10B27047000008B50146BC
:101C1000002000900348009000980844009000982D
:101C2000008808BD006C004008B500220092044AFC
:101C30000092009A02440092009A116008BD0000D0
:101C4000006C004010B504461448B0F8DC0600F4FF
:101C5000007008BB4CB112491248B0F85E00088011
:101C60000846007840F0800008700C4890F8DC06C8
:101C700000F00100C0F1040002010A490C310A48D9
:101C8000FEF7A3FA35F042F90448B0F8DC0640F458
:101C900000710248A0F8DC1610BD00006859002051
:101CA000E0010020E85F0020B824002010B50F48B4
:101CB00090F8FD0300F007041CB10C4890F8330FB6
:101CC00008B1002010BD611EC8B20BF031FC611ECE
:101CD000C8B205212CF0D1FD002005490870054946
:101CE0000870054908800120ECE700006829002001
:101CF0007D0100207C0100208001002070B5B348E8
:101D000090F8FD0300F007051DB1B04890F8330FBF
:101D100008B1002070BDE7E0691EC8B202F090F87B
:101D200030B1691EC8B229F0C9FA0446401C08B98E
:101D30000020EFE7A6480088B8BB0020A54908703E
:101D4000A5490870A5490870012C10D0022C12D0AA
:101D5000062C02D0462C16D111E0691EC8B2112102
:101D60002CF08BFD02209E4908700020D2E7022053
:101D70009B49087009E000209949087005E001209E
:101D80009749087001E00020C4E700BF8F4890F831
:101D9000FD0300F007009249097801F00F0140EAC5
:101DA00001118A4880F8FD1330E0FFE78C48007885
:101DB00002282BD1042C1FD18648007880F0030024
:101DC000844908700846007848B9864880785328C6
:101DD00005D18448008840F2012188420BD0691E59
:101DE000C8B20BF0A5FB5520784981F8330F0020CD
:101DF000774908808EE778E07548B0F9000001283F
:101E000004DD7448007860407249087072480078B8
:101E100038B16F48B0F900006F490978401A0128BD
:101E200004DC70496A4AB2F900208C54302C01DB82
:101E3000392C01DD2E2C0AD16848007818B9644885
:101E40000078664908706248007863490870604805
:101E50000088401C00B25E49088061480078012873
:101E600019D1084600880A2815D15C48007818B9AD
:101E70000846007859490870554800785649087056
:101E80002E215348B0F900200088401C00B2504B6E
:101E90001880544881544E48B0F900001E2801DAD9
:101EA0000A2C03D100204A49088033E70D2C1BD1AE
:101EB0004B48007818B94B480078022807D04848AA
:101EC0000078012804D147480078462800D10CE06A
:101ED000691EC8B20BF02CFB55203C4981F8330F2A
:101EE00000203B49088015E716E700BF002005F0F9
:101EF000ABFA691EC8B20BF01BFB00203A49087010
:101F00003349088000260025344800783249097892
:101F1000884259DA3148047832E04EB93148005BE2
:101F200043F23001884201D0012000E00020064643
:101F300026B300212D48A0F8841E2A48055D2E2DC9
:101F400006D12348008818B901202149088008E0FB
:101F50001F48008828B11E480088401C00B21C4958
:101F600008801B48B0F90000042807DC1F48A0F8CF
:101F7000825E0146B1F8820E14F09EFE601C04B22F
:101F8000154800788442C8DD0020114908800120EE
:101F900000F0CCF90D48B0F8790F432804D00B4875
:101FA000B0F8790F45280FD100211048A0F8841E01
:101FB00040F2D471A0F8821E0120044981F8340F48
:101FC00022F014F80120A5E60020A3E668290020ED
:101FD000800100207E0100207D0100207C01002086
:101FE000820100208C230020C002002068390020DC
:101FF00070B5844890F8FF0300F00705814890F819
:10200000330F90B97F48B0F8790F42280DD07D4842
:10201000B0F8790F462808D07A48B0F8790F4728E9
:1020200005D1794800781F2801D0002070BD002616
:1020300079E05DB1691EC8B201F002FF30B1691EDE
:10204000C8B229F03BF90446401C08B90020EDE76E
:10205000E4B26E4801680068401C6C4A10606C482D
:10206000445410460068FE2803DB00201146086037
:10207000DCE70A2C11D006DC022C09D0032C31D06D
:10208000092C40D12DE00D2C2AD0242C3BD100E08E
:1020900000BF00205D490860C8E75C480068801EFA
:1020A0005B49085C0D280AD158480068801E5749D2
:1020B000086000205649554A126888540EE053487B
:1020C0000068401E51490860002051494F4A12687B
:1020D00088544E48006808B90020A7E7012621E08F
:1020E00000BF00BF49480068401E48490860002002
:1020F0004749464A126888544448006808B9002095
:1021000094E701260EE0202C01DB7E2C09DD3F4800
:102110000068401E3D49086000203D493B4A126866
:10212000885400BF00BF002E83D0002005F08CF93A
:102130000020384908703348B0F8790F47281CD17F
:1021400031480078C8B92F4991F85B1F01F00401AC
:1021500009B1062100E0042108462D4917F0CEFC04
:1021600005F030FB05F010FB04221146284808F06A
:10217000A3FF00202549086058E724480078264935
:1021800008700020214908602449234A1278891ADE
:10219000481E21490A781E49FEF717F801201949FF
:1021A00081F8350F02F0E4FD1648B0F8790F4328A6
:1021B0001CD01448B0F8790F452817D000211848D2
:1021C000A0F8821E00200F4981F8430F0846B0F89E
:1021D000790F442804D113480078134908700FE0A0
:1021E000084890F8C7031049087009E000210C481E
:1021F000A0F8841E42F21071A0F8821E21F0F6FEB3
:10220000012013E768290020BB0200208401002080
:10221000AA230020C0020020BD020020B9600020D7
:1022200068390020CB020020B402002030B50246FD
:102230000B460020591E0EE0C40004EB4004555C20
:1022400004EB2510C40004EB4004555C05F00F05B9
:1022500060194C1E21B20029EEDA30BD10B50446DB
:1022600011210948FDF7CAFF074854F8011F016012
:1022700061684160FFF77BFC0348016821604068AA
:102280006060641E10BD000014290020D0F80220F8
:10229000C0F80120C288A0F80520017AC17100228F
:1022A0000272704710B5044611210948FDF7A6FFD8
:1022B000074854F8011F016061684160FFF771FC35
:1022C00003480168216040686060641E10BD000022
:1022D00014290020072105E04A1E431C9B5C421C78
:1022E0005354491E0029F7DC002242707047000059
:1022F00008210C4A1160012803D10A210A4A1180E1
:102300000EE0022803D12821074A118008E00328A3
:1023100003D15021044A118002E00A21024A1180AF
:1023200070470000141401406E00002000B5034601
:10233000D8B2FFF7DDFF002000BD00002DE9FC5FF3
:102340008346894616461C46082E00D90826002CCE
:102350003ED02048D0F800A04FF00008601E04B224
:1023600029E0A5B205EB080085B26D1005FB09A0B8
:10237000184908603146684629F0C4FC324669466F
:10238000584605F073FD0746002F03DA2CB2601E95
:1023900004B210E037B10FFA85F808F101000FFA26
:1023A00080F808E00B480068801B0A490860681C38
:1023B00080B2BDE8FC9FA045D3DD06480068801BC5
:1023C00004490860002F03DD08460068484408609F
:1023D0000020EEE7000200202DE9F84381460F4679
:1023E00090461C46B9F13C0F74D009DCB9F1340FAA
:1023F00011D0B9F1350F0DD0B9F1360F69D10DE01B
:10240000B9F1440F0CD0B9F1450F7DD0B9F1460FA9
:102410007BD160E07EE00020BDE8F8830020FBE790
:102420003E48B0F8710F00F4006000284ED1F8B2B9
:102430008DF80000022608F00100A0B3384890F89B
:102440009A0718B930208DF8010033E02CB1202C08
:1024500003DCE0B28DF80200032631208DF8010084
:1024600014223146684628F025FC002509E005EBDA
:1024700045112C4A881804221F2128F01BFC681CD7
:10248000C5B2082D05DA05EB45102649085C002881
:10249000EDD100208DF8000004220121684628F0CB
:1024A00009FC0120B8E7FFE708F0020010B1322074
:1024B0008DF801002CB1202C03DCE0B28DF8020075
:1024C000032614223146684628F0F4FB0120A3E7D6
:1024D00000E01AE01EE03FB13846FDF7CEFEC6B27E
:1024E000202E02DD202600E000260C48B0F8710FF7
:1024F00000F4006028B908F0FF023146384628F0A1
:10250000D9FB012088E7FFE704E0494606A031F047
:102510006DFD00BF00BF00207EE70000682900209D
:102520006849002002510020436F6D6D616E642088
:1025300025640A0010B588B0044620461D2C7DD0C5
:102540000CDCA0F10F000D2879D2DFE800F0317823
:1025500078302B787878353947433F00502841D080
:1025600006DC332830D03D2809D03F2867D10DE064
:10257000512878D0522875D05328F7D1D0E012F0E6
:10258000A3FA00908248008808B010BD8148B0F8D6
:10259000710F00F4006020B980220021084628F065
:1025A00089FBF1E014F060FE28F06EFAECE0EBE05D
:1025B00014F048FE0020E7E700200AF0D7FFE3E030
:1025C00001200AF0D3FFDFE00020DDE70320FFF762
:1025D0008FFED9E00220FFF78BFED5E00120FFF748
:1025E00087FED1E001A835F0DEFA0798B0F5FA6F62
:1025F00002DA0020079003E00798A0F5FA60079040
:102600000A21049890FBF1F201FB12000A220499BE
:1026100091FBF2F100EB01105F4908700A21069866
:1026200090FBF1F201FB12000A22069991FBF2F1F4
:1026300000EB0110584948700A2101E09CE09EE03F
:10264000079890FBF1F201FB12000A22079991FB17
:10265000F2F100EB0110504988700598C870012014
:1026600092E700E02EE001A835F09DFA0A210398D8
:1026700090FBF1F201FB12000A22039991FBF2F1A7
:1026800000EB0110454908700A21029890FBF1F215
:1026900001FB12000A22029991FBF2F100EB0110FA
:1026A0003E4948700A21019890FBF1F201FB1200AB
:1026B0000A22019991FBF2F100EB01103749887071
:1026C000002061E701A835F06EFA3348807800F009
:1026D0000F0031498978091101EB810100EB4100BC
:1026E00000F5FA6007902C48407800F00F002A4966
:1026F0004978091101EB810100EB41000690264861
:10270000007800F00F0024490978091101EB8101DC
:1027100000EB4100049001A835F071FA002033E786
:1027200001A835F040FA1D48007800F00F001B4961
:102730000978091101EB810100EB41000390174872
:10274000407800F00F0015494978091101EB81012B
:1027500000EB410002901148807800F00F000F4913
:102760008978091101EB810100EB4100019001A87A
:1027700035F045FA002007E702F0F2FC04E72146B5
:1027800007A031F033FC00BF00BF0020FCE60000D2
:10279000FE02002068290020000000200400002024
:1027A000436F6D6D616E645F312025640A00000027
:1027B0002DE9F84F8046894615461E46DDF828A0CB
:1027C000374800680090CB46A8F10104B8F1030F28
:1027D00063DCBAF1000F02D00020AAF80000F5B9BE
:1027E00009E02EB12E4801680098081AB04202D9BB
:1027F0000020BDE8F88F04EB440000EBC410294929
:1028000001EB0010C06804EB440101EBC411254A40
:1028100002EB011189688842E3D00120E9E7681CD6
:1028200088B9002004EB440101EBC4111D4A02EBFE
:102830000111886004EB440101EBC41102EB0111AA
:10284000C8600120D5E7B9F1000F15D104EB4400B1
:1028500000EBC410134901EB0010C06804EB440105
:1028600001EBC4110F4A02EB01118968884201D0C3
:102870000120BEE70020BCE700270AE032465946A7
:10288000404630F0E3FE08B938B2B2E70BF1010B75
:102890007F1CAF42F2DB2846ABE70020A9E700002F
:1028A000DC000020680500202DE9F04705460E46B3
:1028B00017469946B046032D0EDC002407E098F831
:1028C0000010284631F062F808F10108641CBC428F
:1028D000F5DB0120BDE8F0870020FBE770B500259F
:1028E00000BF0E48806800F400544FF47A7035F051
:1028F00069FB0A48806800F40056B44204D16D1C9C
:102900001CB1022D01DD02E00025322DE9DB00BF04
:102910000CB9012070BD0020FCE700000010014050
:1029200030B5024600200FE00B780124844023409C
:1029300023B13124431D064DEC5403E03024431DE4
:10294000034DEC54431C18B20828EDDB30BD0000E9
:10295000D360002000BFFEE70146CAB20B1243EA73
:102960000220704710B500200349086003202CF0B6
:10297000DBFA012010BD0000780100202DE9F041B4
:1029800006460C4600271FE002E0052035F01AFB42
:10299000104800680028F8D000200E490860402C3C
:1029A00001DD402500E02546F0192A46C02132F01D
:1029B000B5F9294601202CF0E1FA01202CF00CFB9E
:1029C000601BC4B2781987B2002CDDDC0120BDE8A1
:1029D000F08100007401002008B50020009022E181
:1029E0009748008800F00F00964908700846007864
:1029F00000287CD1944800689449088008460088E3
:102A000000F03000924908809048008800F440505F
:102A10008E4908808C4909684BF6BF7201EA0200B2
:102A200080F4005080F0200040F4004141F080012B
:102A3000854A11608248008800F0100090BB104663
:102A4000006848F60F7108401146086012F06CFBF0
:102A50007D4909684BF6BF7201EA02007B4909888B
:102A600001F4805109B180F480507849098801F45B
:102A7000005109B180F400507549098801F0100136
:102A800009B180F010007249098801F0200109B1F4
:102A900080F0200081B241F4004141F080016A4A97
:102AA000116008BDFFE76848006880B20090BDF87B
:102AB000000000F40060B0B363480068C0F30E008B
:102AC00048F68F710840604908602CF073FF5E493A
:102AD00009684BF6BF7201EA02005C49098801F4FB
:102AE000805109B180F480505849098800E056E0CF
:102AF00001F4005109B180F400505549098801F0F2
:102B0000100109B180F010005149098801F020013D
:102B100009B180F0200081B241F4004141F0800110
:102B2000494A1160BDE7FFE7BDF8000000F400402E
:102B3000002878D044480068C0F30E0048F68F7132
:102B400008404149086016F0B1FF3F4909684BF65B
:102B5000BF7201EA02003D49098801F4805109B1C0
:102B600080F480503949098801F4005109B180F49A
:102B700000503749098801F0100109B180F01000B8
:102B80003349098801F0200109B180F0200081B2A9
:102B900041F4004141F080012B4A116081E729484E
:102BA00000782C4901EB8000D0F8000C80B2009036
:102BB000BDF8000000F40040C0B12248007801EBED
:102BC0008000D0F8000CC0F30E0048F68F7108406A
:102BD0001C4909781F4A02EB8101C1F8000C194910
:102BE0000978491E1C4A52F821008047BDF80000B0
:102BF00000F08000B8B113480078164901EB80005E
:102C0000D0F8000C48F60F7108400E490978114AB7
:102C100002EB8101C1F8000C0A490978491E0F4AEC
:102C200052F82100804708484430006880B20449C7
:102C3000088000F4004000287FF4D2AE00BF30E7E7
:102C40006404002040050020005C00405405002082
:102C500056050020005000408C0400207004002025
:102C600070B5ADF5006D0446002522460949684659
:102C7000FDF7ABFA002604E01DF806002844C5B2B3
:102C8000761CA642F8D3C5F58070C5B228460DF56E
:102C9000006D70BD082500202DE9F04190B005467B
:102CA000FE4801680A9141680B91007A8DF8300066
:102CB000FA481B300168079141680891007A8DF845
:102CC0002400F6480A38416E0491816E059190F80F
:102CD0006C008DF81800F248B0F8957FB0F87F8F3F
:102CE0000026A5BBEF4801680D9141680E91007A5E
:102CF0008DF83C00EB480168019141680291007A2F
:102D00008DF80C00E5480A38016C0191416C029184
:102D100090F848008DF80C00E34901A816F03CF942
:102D2000E248407800F0080028B99DF8040080F0DF
:102D300080008DF80400DA4890F84E0F002805D086
:102D40009DF8040080F080008DF80400D1E0FFE7DA
:102D5000022DFBD1D34801680D9141680E91007A94
:102D60008DF83C00CF480168019141680291007ADA
:102D70008DF80C00C9480A38016C0191416C029130
:102D800090F848008DF80C0000248EE0C4EB04118C
:102D9000C74800EB4100008841F2883188426DDD70
:102DA000C4EB0411C24800EB4100008842F21071EC
:102DB000884214DDC4EB0411BD4800EB41000088DB
:102DC000A0F51C501138B649A1F8950F28F0F6FD72
:102DD000B348B0F8A30FB249A1F87F0F0BE0C4EBE2
:102DE0000411B34800EB41000088A0F598508938E1
:102DF000AB49A1F87F0F28F09FFAAC48407800F06B
:102E0000400020B9A948407800F08000C0B1A74830
:102E1000407800F0400030B1A4482F3890F82200EC
:102E200000F0400060B9A148407800F0800030B167
:102E30009E482F3890F8220000F0800000B932E060
:102E4000C4EB04119A4800EB410050F8151F0D9196
:102E500041680E91007A8DF83C0006F0020038B10E
:102E60009DF8340080F080008DF8340026F00206D2
:102E70000DA98A480930FDF799FE13E0C4EB04114F
:102E80008B4800EB4100008840F22F11884208D0A7
:102E9000C4EB0411864800EB41000088B0F5977F31
:102EA00000D100E000BF601CC4B28248D0F8AF027D
:102EB000A0423FF76BAF804901A816F06DF8774943
:102EC000093101A809F0BEFD7848407800F00800FB
:102ED00028B99DF8040080F080008DF80400704847
:102EE00090F84E0F28B19DF8040080F080008DF816
:102EF00004000024C3E1C4EB04116D4800EB410061
:102F0000008841F2883188427DDD26F00106C4EB5D
:102F10000411674800EB4100008842F210718842BA
:102F200016DD46F00106C4EB0411614800EB4100D8
:102F30000088A0F51C5011385949A1F8950F28F0C8
:102F40003DFD5748B0F8A30F5549A1F87F0F0BE09E
:102F5000C4EB0411564800EB41000088A0F59850DE
:102F600089384F49A1F87F0F28F0E6F9042D31D1B7
:102F70004A480A9901600B9941609DF8301001722E
:102F80004A48407800F0400038B94848407800F09E
:102F9000800010B900F0A8FB41E14448407800F0FF
:102FA000400030B141482F3890F8220000F0400036
:102FB00068B93E48407800F080000028ECD03B48DB
:102FC0002F3890F8220000F080000028E4D000F0B4
:102FD0008BFB24E13548407800F0400020B93348AD
:102FE000407800F08000D0B13048407800F04000D8
:102FF00030B12E482F3890F8220000F0400070B910
:103000002A48407800E0B0E000F0800030B1274866
:103010002F3890F8220000F0800000B92DE1012D3A
:1030200060D1C4EB0411224800EB410100F6F230FC
:10303000CA6802600A694260097D017206F00200F6
:1030400038B19DF8340080F080008DF8340026F00F
:103050000206C4EB0412164800EB4200C11C0F48E4
:103060001B3015F099FFC4EB0412114800EB42002D
:1030700000F1150109481B302DF0ECFC074800F168
:103080001B010A6802604A684260097A0172C4EB57
:103090000411074800EB410110E00000F247002056
:1030A00068290020CCBC030802BD0308C93A0020EF
:1030B0001B3C00206839002014BD030800F6CD3009
:1030C00051F8032F42664A688266097A80F86C10CC
:1030D000A0F5686090F8E40E80F08001824880F8E6
:1030E000E41E9CE0C4EB0411804800EB410050F862
:1030F000151F0D9141680E91007A8DF83C0006F085
:10310000020038B19DF8340080F080008DF8340062
:1031100026F0020601A90DA815F03EFF74490DA87E
:1031200009F090FC00210DA82AF0B4F80DA90120A7
:10313000FEF7BAFB6F480D9901600E9941609DF84A
:103140003C1001721B380D9901600E9941609DF889
:103150003C100172C4EB0412644901EB420101F11D
:1031600015000DA9FDF722FD59E0C4EB04115F48DD
:1031700000EB41000088B0F5FA7F1FDDC4EB0411BD
:103180005A4800EB41000088B0F5FC7F16DC012DA9
:1031900014D1C4EB0411554800EB41015548CA68ED
:1031A00002600A694260097D01721B3851490A6850
:1031B00002604A684260097A017230E0C4EB04118F
:1031C0004A4800EB41000088B0F5FC7F0BDDC4EB02
:1031D0000411464800EB41000088B0F5FE7F02DC98
:1031E000012D00D149E0C4EB0411404800EB41003F
:1031F0000088B0F5977F02D1042D00D03DE03D4816
:103200003D490A6802604A684260097A01721B38C7
:1032100039490A6802604A684260097A01721DB938
:10322000364890F84E0F48B13248253832490A687E
:1032300042664A688266097A80F86C10042D1BD0B9
:103240002F4890F820102D48B0F8CC07814206DABC
:103250002B4890F820002949A1F8810F03E00020B5
:103260002649A1F8810FFDF78FFE06F0010008B195
:10327000FDF7A4FFFDF7E8FD00BF601CC4B21A48CB
:10328000D0F8AF02A0423FF736AE1C4890F84E0F80
:1032900038B119480168019141680291007A8DF8AE
:1032A0000C0014481B380A9901600B9941609DF885
:1032B000301001721B3007990160089941609DF838
:1032C00024100172253804994166059981669DF89C
:1032D000181080F86C100948A0F8957FA0F87F8F2F
:1032E00010B0BDE8F0810000683900201B3C0020D0
:1032F00014BD03080D480020CCBC03086829002039
:103300009A3A00202DE9F04186B0044600270025B6
:103310001CB9ED490020FEF7C7FAEB481230EA4924
:103320000A6802604A684260097A0172E74890F8C8
:10333000EC0800287DD0E54890F83E0F002878D1B1
:1033400000BF0020E14981F8610F93E128F090FD72
:10335000DF48007C00F00800E8B1022D19D1DA48FE
:10336000873803990160049941609DF81410017237
:10337000D64890F8610F00EBC000D3491B310144DF
:10338000D148873802680A6042684A60007A087249
:1033900014E0012567E1022D00D164E1CB4890F8EB
:1033A000610F00EBC000C8491B310144C648873893
:1033B0000A6802604A684260097A0172C24891381C
:1033C000C4490A68C2614A680262097A80F8241016
:1033D0000A3002F03FFE00287DD0BB489138BD493D
:1033E0000A6842664A688266097A80F86C1064301E
:1033F000B749B1F80D20A0F80120C97BC170B448CD
:10340000007C00F0010040BBAF48913800F10A0198
:103410000A68C2614A680262097A80F824100421AD
:10342000A0F5686080F8E41E00F6E46100F69C6098
:1034300000E03CE115F0B0FD0021A348753829F00B
:1034400029FFA14975390120FEF72EFA9E497539E9
:1034500001F18700FDF7AAFB4FE0032C01D0022CFD
:103460004BD19948913800F10A010A68C2614A6853
:103470000262097A80F8241064304078992813D1C8
:1034800091482D38807899280ED18F482D38C078F2
:10349000992809D18C486C388E490A6802604A68BC
:1034A0004260097A017228E087486C38A0F11B015C
:1034B0000A6802604A684260097A017286493F30B0
:1034C000FDF774FB0421854880F8E41E00F6E461F2
:1034D00000F6A56000E015E009F0B4FA7A486C380F
:1034E00029F070FF78496C39A1F109002DF0B2FA8A
:1034F0007549753903A82DF0ADFA0CB1042C01D132
:10350000FEF704F8022C7CD17148007C00F0020028
:10351000002874D06C48753802F09CFD28B96C48BE
:10352000007C00F004000028F3D07FB9022D06D102
:103530006B49D1F8800103A919F050F805E06849FA
:10354000D1F88001604919F049F801271B2004F0E7
:10355000B3FB5F48007C00F0100018B35C49614881
:10356000FCF7ADFE5F48FCF788FE06462022304699
:10357000761C5C490A545A4AD2F86812594A901982
:10358000FCF79DFE5248007C00F0010028B94E492E
:103590008739544819F022F804E04B496C395148F6
:1035A00019F01CF8202240214E48FCF720FE494823
:1035B0000168009141680191007A8DF80800444843
:1035C000B0F80D00ADF801004148FCF756FE80460A
:1035D00042463F494348FCF7F8FD02208DF80000C1
:1035E0006946404810300BF0D1FF25203D49487412
:1035F00000208874344975393A4818F0EFFF31E0FB
:10360000FFE7032C2ED13248007C00F00100F8B116
:103610002F48007C00F00200D0B12B48873802F020
:1036200019FD20B92A48007C00F0040080B1264929
:103630007539274818F0D2FF2548007C00F01000AB
:1036400030B12749D1F868021F496C3918F0C6FF1C
:103650001D4891381F490A68C2614A680262097AA6
:1036600080F8241000BF194890F8610F401C1749DA
:1036700081F8610F154890F8611F90F8EC088142BD
:10368000FFF664AE012D10D10F4912310020FEF774
:103690000BF90D4812300168039141680491007ADA
:1036A0008DF81400022500274BE600BF00BF074835
:1036B00090F8410F20B9044912310020FEF7F4F8C8
:1036C00006B0BDE8F081000079480020682900209C
:1036D000A03B0020CCBC0308F9BC030868390020DB
:1036E000F8AA0308D360002010B58AB05E4840787D
:1036F00000F00400002854D15C48016C0191416C39
:10370000029190F848008DF80C00594901A815F075
:1037100043FC002442E054482F3890F82300012154
:10372000A1400840C0B304EBC4005049AC31084488
:103730000168079141680891007A8DF8240001A979
:1037400007A815F029FC4B4907A809F07BF90021CF
:1037500007A829F09FFD07A90120FEF7A5F8424818
:10376000407800F0080028B99DF81C0080F0800027
:103770008DF81C00404890F84E0F28B19DF81C00B1
:1037800080F080008DF81C0004EBC401374AAC3295
:10379000881807A9FDF70AFA601CC4B2082CBADB26
:1037A0005FE0324813300168079141680891007A60
:1037B0008DF8240007A802F04DFC002851D0002409
:1037C0004DE029482F3890F823000121A1400840FE
:1037D000002842D004EBC401244AAC32881802F01D
:1037E00039FCD0B304EBC401204AAC32881802F093
:1037F00031FC90B304EBC4001C49AC3108440168AF
:10380000049141680591007A8DF81800194904A8BF
:1038100015F0C2FB07A904A809F014F913490A31ED
:1038200004A815F0B9FB134904A809F00BF900210D
:1038300004A829F02FFD9DF8100000F0FC008DF881
:10384000100004A90120FEF72FF804EBC401074A79
:10385000AC32881804A9FDF7A9F9601CC4B2082C81
:10386000AFDB0AB010BD0000C93A0020E8470020D5
:1038700002BD030814BD03086829002002469142D6
:1038800001DD00207047531A03EBD370C0F34700EB
:10389000F8E700002DE9FC5F664F6748007858B9EB
:1038A0004FF0050800206449A1F805001820C871F0
:1038B0000846B0F808A004E05F48B0F805A04FF053
:1038C0000A084FF0000901E008F1010817F80800A4
:1038D0000028F9D108F1010857484078C0000C21B0
:1038E00090FBF1F0554908805348C07888800C203F
:1038F000C8801820088148810024002001904E488B
:10390000B0F80500002861D0002048804A48B0F88F
:10391000055000264DE0A146785DA8B9474A518977
:10392000474A10192022FCF762FC444840890444AD
:1039300000222046641C42490A546D1C3F484088BE
:10394000401C3E49488034E0785D012801D1AD1C1F
:103950002FE000260AE039484089B04205DD7A5D53
:103960002046641C36490A54761C6D1C3248008976
:10397000A84202DD785D0028EDD16D1CF0B2009008
:1039800005E020222046641C2D490A54761C2B4851
:103990004089B042F5DC2146641C294A0098505405
:1039A00026484088401C254948800198401CC0B2E8
:1039B000019021480089A842ADDC204840881F4979
:1039C0004989491C48431D49C86003E000201B4940
:1039D0004880C86025464FF000091EE009EB080644
:1039E000B85D98B9761C4FF0000B06E00022204627
:1039F000641C13490A540BF1010BB85D584502DDF4
:103A0000B4F5005FF2D309F1020906E0BA5D204681
:103A1000641C0B490A5409F10109D14502DAB4F5D5
:103A2000005FDBD30548C068611B08440349C860D8
:103A3000BDE8FC9F00F0036400F00364209F0020B9
:103A4000309F002010B5464890F8E10330B10128BE
:103A500020D002283AD0032871D153E0404890F892
:103A6000300F30B1012808D002280AD003280DD128
:103A700008E03C48FEF72EFC0AE03A48FEF712FC4C
:103A800006E005E03748FEF7E9FB01E0002010BD45
:103A900000BF56E0324890F8300F30B1012805D011
:103AA00002280BD003280DD104E00DE02D48FEF7CD
:103AB000D5FB09E02B48FEF7D1FB00BF2948FEF7F4
:103AC000E5FB01E00020E2E700BF3AE0244890F87F
:103AD000300F30B1012808D002280AD003280DD1B8
:103AE0000BE02048FEF7DEFB00BF1E48FEF7F2FBAE
:103AF00006E01C48FEF7D6FB02E001E00020C6E726
:103B000000BF1EE0164890F8300F30B1012808D0F1
:103B1000022807D003280DD108E01248FEF7C2FBA7
:103B20000AE009E00F48FEF799FB05E00D48FEF7B3
:103B3000ADFB01E00020AAE700BF02E0FFE70020A4
:103B4000A5E700BF084890F8C00E00F0F80106484D
:103B500080F8C01E0020024981F8300F012096E74E
:103B600068290020284800206839002010B5124834
:103B700090F8300F30B1012808D002280AD003286D
:103B80000DD108E00D48FEF7A5FB0AE00B48FEF753
:103B900089FB06E005E00948FEF760FB01E0002034
:103BA00010BD00BF0221064880F8C01E0020024957
:103BB00081F8300F0120F3E7682900202848002011
:103BC000683900202DE9F04706460C4615461F4689
:103BD000681E00F00F010120884000F0FF0801205E
:103BE000304908703048007848B9207800EA080069
:103BF00008B1012000E00020401C2B4908702A4831
:103C00000078022802DD0120274908702648007844
:103C1000022808D187F0790024494871207840EAC9
:103C20000800207007E087F06E0020494871207876
:103C300020EA080020701D484079792807D11C48E7
:103C4000D0F850151948C01CFCF739FB06E018489D
:103C5000D0F854151548C01CFCF731FB154890F8F6
:103C6000DE1600231A460A202BF0E2F9104901EB78
:103C700086010868FF22002107F01EFA05F0800087
:103C800068B10B4901EB86010868FCF7F6FA81463A
:103C900005F00F000123FF22494607F089FDBDE82A
:103CA000F0870000BE020020BC020020D36000208C
:103CB000F8AA03086859002010B500F007F8024878
:103CC00090F8330F10BD00006829002010B512F0E5
:103CD00089FF002855D010F05DFF0446412C3DDDE2
:103CE000482C13DA2848A0F8794F09E010F052FF69
:103CF0000446412C04DD482C02DA2348A0F8794F11
:103D00002148B0F8790F4228F0D03AE0482C0AD187
:103D10001D4890F82C0F00B300201B4981F82C0F90
:103D2000A1F87D0F2DE0184890F82C0FA04228D064
:103D3000154880F82C4FA4F148001349A1F87D0FD5
:103D40000846B0F87D1FB0F82D05814219DD00202E
:103D50000D49A1F87D0F81F82C0F12E00A4890F868
:103D6000C103A0420DD1084890F8490F462808D059
:103D7000054890F85C0F20B91B20034981F8330FE8
:103D800010BD00BFFCE70000682900202A4A92F815
:103D9000022402F00F0100294CD097282ED008DC15
:103DA00015280FD0812813D0822817D0852837D125
:103DB0001EE09A2828D0CF282CD0E1282CD0F82833
:103DC0002ED12BE0012901D15D2000E0402030E020
:103DD000022901D17D2000E07E202AE0012901D1C5
:103DE0007B2004E0062901D15D2000E0602020E076
:103DF000062901D17B2000E040201AE0062901D1EC
:103E0000602000E07C2014E0022901D15D2000E068
:103E10005E200EE024200CE07E200AE05B2008E01B
:103E20007F2805DDB02803DA00F07F02034B985CA1
:103E300000BF00BF7047000068290020CAD50308F2
:103E400010B50446611CC8B2002211462FF0FEFBDB
:103E500010BD0000F0B585B0044614B9474890F88D
:103E6000334FFF2C0CD10020FEF760FA434890F846
:103E7000330FFF2803D10020404981F8330F7BE046
:103E80003F480078A0420DD1002C75D03D48006815
:103E9000002871D14FF4FA703A4908600120FEF70A
:103EA00045FA69E0002544B935480078002861D01A
:103EB0000021084633F068F95CE0AA1CD1B2E8B2F0
:103EC00033F062F93049D1F8F002FCF7D6F9C7B205
:103ED00039460E20FFF7D2FC401CC6B2EAB22A498E
:103EE000D1F8F002314633F036F9002C1CDD642C99
:103EF0001ADC04F1D301244A02EB81010868FCF7C3
:103F0000BCF9C7B239460E20FFF7B8FC401CC6B258
:103F1000691CCAB204F1D3011B4B03EB8101086891
:103F2000314633F018F91EE0002000900190029015
:103F300003901549D1F8F002FCF79FF906461248A4
:103F4000D0F8F01232466846FCF73FF92146684641
:103F500031F08DF800208DF80E00681CC2B20721E8
:103F6000684633F0F8F84FF4FA700649086001200B
:103F7000FEF7DCF90248047005B0F0BD68290020A6
:103F800078020020E4000020F8AA030870B5FE487B
:103F900090F84F5F90F8C103A84206D14FF4FA6140
:103FA000FA48A0F8821E002070BDF748B0F8790FDB
:103FB00000F47F40B0F5706F03D0F34890F8330FF2
:103FC00008B10120F0E7F248007858B10021EF482D
:103FD00080F8C01E0822EF4900F6C1602CF0B4FC46
:103FE00010F00AFD284617F06DFD08B10120DBE74F
:103FF000E748007848B1E8480078172805D1E74835
:104000000078022801D1062412E0E348007817283E
:104010000AD1E2480078042806D10624DF48007857
:10402000401EDE49087003E028460EF0B5F904464C
:10403000D54890F8230F38B10E2C05D00020D24976
:1040400081F84F0F0120AFE7CF4890F8480F18B91B
:10405000CD4890F83A0F58B1102C09DAD048007BBF
:104060001F2805D00E20C84981F8330F01209BE797
:10407000C7480078A8B9C448B0F96F0F00280CDA17
:10408000C149B1F96F0F002801DB014600E0414250
:1040900009B2BD4AA2F86F1F03E00020BA49A1F897
:1040A0006F0FE01E0C2871D2DFE810F0A7050C009E
:1040B0005D05FF0070005C05A6055D0470007000E2
:1040C00070006004B048B0F8790F00F47060D0B1AF
:1040D000AD48B0F8790F00F47060B0F5706F0CD097
:1040E0000C220421084603F03BFBAD48807A401EB9
:1040F000A9490978081AA84908704720A249A1F8D7
:10410000790F012050E7A048B0F8790F442804D077
:104110009D48B0F8790F462839D19B4890F8140F84
:10412000401C994981F8140F084690F8140F9C49D7
:104130000979884203DD0120934981F8140F9448DE
:10414000007878B19048B0F86F0F30B18E48B0F970
:104150006F0F9349097988420ADD01208A4981F865
:10416000330F82E3884890F8140F8749A1F86F0F46
:10417000854890F86F0F844981F8140F042007F0E8
:10418000E5FF002003F060F901200DE7FEE382481F
:104190000078002834DD81480078002830DD81482F
:1041A000007800282CDD8048007818B1012078497B
:1041B000087004E00120744981F8330FD1E77A4890
:1041C0000078401C7849087001207649087007F093
:1041D000B3FB08B90020E7E66B4890F8330F70B9DD
:1041E000724B1A79724B93F8DE16704B987803F085
:1041F000B7FA6E488178FF226E4806F05DFFB0E79F
:104200006148B0F96F0F66281ADD5F48B0F96F0F8B
:104210006C2815DA5C48B0F86F0F6B2809D15A4842
:10422000B0F8790F472804D00120574981F8330F9F
:1042300005E05549B1F86F1F88B201F0C7FF90E75C
:104240005148B0F86F0F40B14F4890F86F0F401EC3
:10425000514908700020534908704F48007810B148
:104260005048007888B94E4800794B49097888420F
:1042700002DD4948007818B901204749087004E078
:1042800045480078401C444908700E204A4908708F
:10429000042007F05BFF002042490870474908806E
:1042A0003E490870404908705BE73748D0F8710F05
:1042B00020F480303449C1F8710F0846B0F8790F06
:1042C000442804D00846B0F8790F462836D1304843
:1042D0000078A8B12C48B0F86F0F30B12A48B0F977
:1042E0006F0F2F490979884204DD0120264981F8A2
:1042F000330F36E7244890F86F0F234981F8140FE5
:104300002148B0F8790F442808D11F4991F8141FAB
:1043100001F2362188B222F021FB07E01A4991F818
:10432000141F01F23B2188B222F07CFB01201649C8
:1043300081F8140FFF2007F009FF12E71248B0F8C8
:10434000790F47287ED11648007BE0B91448807A5F
:10435000134908800846C07A0871002048710E4849
:10436000C1F806000120087315481649086003F0DB
:104370001AFA312007F0EAFE0E200F4908700020DB
:1043800008490870EDE61FE0682900206839002020
:10439000BD020020B7600020BB020020B90200204F
:1043A00050600020BA020020BC020020A824002097
:1043B00068590020D3600020BE020020B202002015
:1043C0004DC100086C020020FE48007B1F2815D05C
:1043D000FD48007890B9FB48D0F806000178F9480C
:1043E000807A401E0844F94908700020F849088086
:1043F000F8490870F8490870F8490870F3480078DF
:1044000000281FD0F348007801287BD1F3480078BA
:10441000002877D0EC48007810B901F0B9FDA0E68B
:104420000021EF4880F8C01EE84800781F286ED1B0
:10443000EC4890F8810888B30020EA49A1F8950F6C
:10444000084600E0BCE190F88108E4490978B1EB46
:10445000400F58DC00221146E3A006F02DFEE5498E
:10446000DE4A1278891A481E0122022106F024FE33
:10447000E14901200EF0FCFFDA49A1F8950F08464A
:10448000B0F8950F98B90021084602F033F930B919
:10449000D44890F8CF03D9490870FEE337E0D649F5
:1044A00000200EF0E5FFCF49A1F8950F1CE0CD48A4
:1044B000B0F8790F442817D0CA48B0F87C0800B289
:1044C000C849A1F86F0F0021012002F013F9C54877
:1044D000B0F87C08C349B1F96F1F884204DAC148BB
:1044E00090F8CF03C5490870BE48B0F8950F00B2E8
:1044F000BC49A1F86F0F002003F00AF8012003F077
:1045000007F804E01FE00020B649A1F86F0FB54896
:10451000B0F86F0F38B1B348B0F86F0F401E00B25B
:10452000AB49088004E00120AE4981F8330FB4E3C1
:104530000020A9490870A9490870AA4981F8330FD9
:104540000120A14908700025A0480078482874D0AF
:1045500010DC412830D006DC192838D0252820D09E
:104560003D281DD1B7E0422868D0462868D04728AA
:10457000F7D173E04938092812D2DFE800F08BC088
:104580000599B41111BA9D009D49D1F82C01002163
:1045900030F0ECFD18B100219248A0F87C180325FA
:1045A000F9E0002014F0BAFB052008F02BF80020F9
:1045B00002F04AFF0120F7E49149D1F8AC0801214B
:1045C00030F0D4FD08B102F02DFE0325E3E0012315
:1045D0008CA219461B2013F00FFB0446012C06D1B8
:1045E000804890F805080A2804DD6C2402E0022CBB
:1045F00000D16B246C2C01D06B2C1CD1804901EBB9
:1046000084010868012130F0B1FDA0B16C2C05D106
:10461000802280498048FBF7D8FD04E080227F4952
:104620007D48FBF7D2FD6F48D0F8710F20F4007081
:104630006C49C1F8710F0325ADE01DE04FE0FFE7C5
:104640006F49D1F818017449EA312AF0B3FE18B95C
:104650002420644981F8330F03259CE06849D1F890
:104660001C016D49DC312AF0A5FE18B924205D49F2
:1046700081F8330F03258EE06149D1F820016649A6
:10468000E3312AF097FE18B92420564981F8330FF8
:10469000032580E05A49D1F824015F49F1312AF01D
:1046A00089FE18B924204F4981F8330F032572E0A1
:1046B00018F08AFC03256EE01BF0D8FD44201CF0A6
:1046C000F3FC46201CF0F0FC19F0C6FA062026F098
:1046D000E1FA03255FE019F0B1F803255BE009F08A
:1046E00009F9032557E04FF4805010F08DFB0325A6
:1046F00051E04FF4005010F087FB03254BE000BF62
:10470000012347A200214A2013F076FA0446002C28
:104710003BDD0A2C39DC04F1510084B2A4F15200D3
:104720000A2831D2DFE800F005090E12161A1E22FF
:10473000262B022010F068FB26E04FF4804010F09A
:1047400063FB21E0012010F05FFB1DE0082010F06A
:104750005BFB19E0042010F057FB15E0102010F06F
:1047600053FB11E0202010F04FFB0DE0402010F033
:104770004BFB09E04FF4806010F046FB04E04FF47F
:10478000006010F041FB00BF00BF4FF6FE70844296
:10479000B6D1032500BF00BF95B1032D4BD1094809
:1047A000807A401E09490978081A084908700020D3
:1047B000054908700649088006490870064935E031
:1047C00044E0000050600020BA020020BB0200203C
:1047D000B2020020B9020020BC020020BD0200206D
:1047E0006839002068290020504C5520434F44452B
:1047F00000000000B960002029480020B402002019
:10480000F8AA03084B2E424F4152442054595045B8
:104810000000000038A80308892D002085980308AF
:1048200053454C454354204954454D00087002F00F
:104830000BFE012007E40020F64981F8230F08460B
:1048400090F8CF03F4490870012010E4F348F449CC
:104850000860F448007850BBF348007828B1ED4870
:1048600090F8710F00F0080000B116E2EF480078F0
:10487000401CEE4908700020ED490870EB480078B4
:1048800002281FDD012029F049FEEA4890F8DE06E3
:10489000032806D1012029F04FFE0221002010F04C
:1048A000A9F9E44890F8DE06E349C8700AE0E04858
:1048B000007810B9DC48007820B90120D54981F88A
:1048C000330FEAE10120DD49087007F035F808B937
:1048D000002017E4CF4890F8330FB0BBD3480078DE
:1048E00000283FDDD048007817283BD0CF4800781B
:1048F00001280BDDD04B1A79D978987802F030FF77
:10490000CD48C2788178CE4806F0D6FBC5480078FD
:10491000D8B1C6480078401CC4490870012029F06D
:10492000FDFDC44890F8DE06032806D1012029F0D9
:1049300003FE0221002010F05DF9002002F084FD4A
:1049400006F0FAFF10B900201FE40BE0B148B0F800
:10495000710F00F4807028B9B7488178FF22B848F9
:1049600006F0AAFB99E125F075FE96E1A948D0F87A
:10497000710FB4490840A749C1F8710F0846B0F853
:10498000790F4FF24501884221D100E06EE14520C8
:10499000A049A1F8790F0020A3490870AA4890F80F
:1049A0004F0100F00801A84880F84F11002002F0E4
:1049B0004BFD32F0ABFA042002F0AAFD9549D1F884
:1049C000A50F0422002106F077FB4520F3E591486E
:1049D000B0F8790F00F4706090B143208D49A1F8D0
:1049E000790F002002F030FD042002F091FD89498A
:1049F000D1F8A50F0422002106F05EFB4320DAE582
:104A00009248874908608948007868BB8B480078DD
:104A100050BB8048B0F8790F442804D07D48B0F8E6
:104A2000790F462809D100207F490870FF2007F040
:104A30008DFB0E20864908702FE107F099FD0020BC
:104A4000744981F8230F4720A1F8790F8148006944
:104A5000C1F8A50FD1F8A50F0422002106F02CFB08
:104A600004207B49087018E16F480078C8B36F488C
:104A70000078012836DD6C480078332832DA6A483D
:104A8000007838282EDD68480078C0282ADA664881
:104A90000078C32826DD64480078232822DA62489B
:104AA000007824281EDD6048007815281AD05E485A
:104AB0000078162816D05C480078132812D0002001
:104AC0006549088059490870594908705549087066
:104AD000504890F8C7034F4981F84F0FFFF756FA37
:104AE0003EE0FFE7002032F0CDFD5C48007BD0B116
:104AF0004D480078B8B95A48008858490880584845
:104B000080780871002048714748C1F806000020ED
:104B1000087353480079887251488079C87201201F
:104B20004149087007E04D48807A401E3E490978A7
:104B3000081A3D4908700020364981F8330F394979
:104B40000870394909783031C8B207F0FFFA0020FF
:104B50003A4908704049088034490870344908705F
:104B6000012028E500BF2B48D0F8710F00F48030F9
:104B7000F0BB2848B0F8790F47283CD12F4800787F
:104B8000B0B338480078022835DD36480078401E3A
:104B900026490870274890F8DE06002810DD2549D0
:104BA00091F8DE0602F0B4FC224890F8DE06401EC2
:104BB000C1B2204880F8DE1690F8DE061E49C870A3
:104BC0001C4991F8DE0602F0A3FC0020154908708C
:104BD0001749087006F0B0FE48B10E4890F8330F40
:104BE00028B915488178FF22154806F065FA00E0DB
:104BF00001E00120DFE400BF00BF0648D0F8710FDC
:104C000000F4803028B1E0B20549096888470120E6
:104C1000D1E429E068290020B402002049C100083D
:104C20006C020020BD020020BB020020B90200205F
:104C3000BC02002068590020A8240020BA020020ED
:104C4000D3600020C7FFFEFF113900204DC10008CE
:104C5000BE020020F8AA0308B20200205060002023
:104C60001CCE0308B80200200020A4E41348B0F8CA
:104C7000820E40F6B731884208DD1048B0F8820E47
:104C800040F61C41884201DA002094E40C48407848
:104C900008B101208FE400208DE400BF09480078AE
:104CA000022808D0084890F8710F00F0100010B9E1
:104CB000002002F0C9FB01207DE4000068390020DB
:104CC000EA470020B90200206829002010B52548D5
:104CD000B0F8820EB0F57A7F42DA2248B0F8820E40
:104CE000642190FBF1F201FB1200A8BB1E48B0F852
:104CF0006F0F20B11C48B0F96F0F632804DD01204D
:104D0000194981F8330F10BD1648B0F8820E1649C4
:104D1000B1F86F1F084481B21248A0F8821E1248F1
:104D200090F8520FC8B10F4890F8E40E00F003005D
:104D30000D4981F8300F01F5F45001464A6E0264C6
:104D40008A6E426491F86C1080F848100020064981
:104D500081F8520F0FF050FE02E000200349087066
:104D60000020D0E76839002068290020BD0200201B
:104D700010B57A4890F8F80300F0080000287DD0BC
:104D8000774800780D2803D0754800780C2875D135
:104D9000734800780C2803D13020724981F8420012
:104DA000704890F84310303990F8420001EB001041
:104DB000C4B2262C14D008DC022C0FD0202C0ED02C
:104DC000212C16D0252C36D128E0272C27D0282CB2
:104DD00007D0292C24D0372C2DD10FE000BF00BFE5
:104DE00000BF5E4890F8FF0300F0800000B923E0A8
:104DF00000BF0320594981F8350F1DE0574890F84E
:104E0000FF0300F0100040B1564890F844003928E4
:104E100003D10220514981F8350F0DE000BF00BFDA
:104E20004E4890F8FF0300F0400018B104204B49B1
:104E300081F8350F00E000BF00BF484890F8350FFB
:104E400001281BDD484849490A6802644A684264EF
:104E5000097A80F84810434890F84D10303990F89E
:104E60004C0001EB0010C1B23F48403041703D485A
:104E700090F84B10303990F84A0000E06CE001EBFC
:104E80000010C1B2384840308170364890F849006F
:104E90003038C1B234484030C170304890F8350FD6
:104EA000042813D1304801460A6C42664A6C826677
:104EB00091F8481080F86C100321A0F5686080F824
:104EC000E41E0120254981F8520F11E0234890F893
:104ED000430F68B924485B3023490A6C02604A6C6E
:104EE000426091F84810017201201C4981F8430F7B
:104EF0001A4890F8350F022803D107201849087086
:104F000011E02020174981F8430081F8420013483E
:104F100090F8350F042803D00020104981F8520F73
:104F200005200F49087000240DE0C4F148000D4928
:104F3000085CC4F14E010B4A50542020C4F14801D2
:104F40005054601CC4B2072CEFDB082205494E31D7
:104F5000054841302BF0F8FC10BD00006829002006
:104F6000BD02002069600020E8470020CCBC030897
:104F700070B511F037FE08B9002070BD0FF00AFEC1
:104F800004466E4981F84F0F01F5405090F8DC0659
:104F900000F02000002876D020460DF0FDF90C2806
:104FA00029D005DC48B104281BD006286CD11CE0B0
:104FB0000E286BD00F28F9D114E06148007878B141
:104FC000202060498870487008700020C870042252
:104FD00003215C4806F070F8002059490870CCE7BE
:104FE00000BF00BF04F58070C7E7032002F072F82D
:104FF00004F58070C1E70020534908705348B0F8A9
:10500000DC0620F040015148A0F8DC16504800783A
:10501000401C4F4908700846007840B101280CD068
:10502000022810D0032814D00020087000BF0422EA
:105030000021612004F034FF22E0042200214120FD
:1050400004F02EFF1CE0042200212A2004F028FF97
:1050500016E020203B498870487008700020C87016
:1050600004220321374806F027F8042200214020BB
:1050700004F016FF0020324908703249087000BF62
:1050800000BF002079E73DE02DE0FFE72C480078E5
:1050900020B92A4890F8CF032E4908702848007894
:1050A00070B1202027498870487008700020C870AF
:1050B00004220321234805F0FFFF00202049087047
:1050C0002248B0F8DC0620F020012048A0F8DC16C9
:1050D0001022214900F2CC60FBF777F8042032F06F
:1050E00047FB002049E71848007858B9184800786D
:1050F000032803D1204611F031FB3EE720460DF096
:105100006FFC3AE7402C16DA144800EB440005889F
:10511000302D01DB392D01DD2E2D01D128462CE764
:105120002F2D08D1054890F8710F00F0100010B92C
:1051300043F2300021E744F480701EE76829002024
:10514000E8010020E4010020EC0100206859002063
:10515000E9010020B4020020F8240020892D00205D
:1051600010B50848007808490978884201D1002024
:1051700010BD32F0EDFA12F077F8044802490978D0
:10518000405CF5E765000020660000205C0500201B
:1051900010B52F488168A0F67D70D0F87D0F814250
:1051A0000AD32B488168A0F67D70D0F87D0F081ACD
:1051B000274949690C1A05E02648D0F87D0F244993
:1051C0008968441AB4F5006F2AD22148007E02286B
:1051D00026DA02F0F7FA2049D1F8400304221146FA
:1051E00005F06AFF0320FDF7A1F808E01B4991F8DC
:1051F000F513491EC8B2FEF723FE00B10AE011F014
:10520000F1FC0028F2D00FF0C5FC144991F8C1134D
:105210008842EBD100BF0E48007E401C0C49087646
:105220000B4881680B48D0F87D0F814209D30848AC
:1052300081680848D0F87D0F081A05494969081A9D
:1052400010BD0448D0F87D0F01498968401AF7E77E
:10525000E548002068390020F8AA030868290020E2
:10526000FEB506460C460CB90020FEBD1848016884
:10527000009141680191007A8DF808000A2194FBA1
:10528000F1F201FB124000EBD071C1F347050A2097
:1052900094FBF0F0C1B20DF101004155204604EB42
:1052A000D0714910A4EB410139B10DF10100405D0D
:1052B0000007010E0DF1010041556946304602F02C
:1052C0006FFD012801DA0020CFE70120CDE70000C3
:1052D000CCBC030870B58AB00446AD4890F8F8031A
:1052E00000F00400002879D0A94890F8850830B96A
:1052F000A74890F8710F00F006000028F3D00025B1
:10530000A34890F8710F00F00200002867D0A14870
:105310000168079141680891007A8DF824009C4843
:1053200090F884289C490DF11D00FAF74EFF07A85C
:1053300000F090FE08B90AB070BD012C13D1974857
:1053400094490A6802604A684260097A017290488A
:1053500090F8276F03208E4981F8270F2AF0D4FE9A
:105360008B4880F8276F8D4801680491416805914A
:10537000007A8DF8180000208DF81000854801682B
:10538000019141680291007A8DF80C0007E007A9AD
:1053900004A82BF05FFB824901A8FBF707FC07A9D3
:1053A00004A802F0FDFC0028F1DA7E4890F8C90E4E
:1053B0008DF8040079491B317848FBF7F7FB7948F1
:1053C00090F8C96E002180F8C91E724801680491E6
:1053D00041680591007A8DF8180009E0D6E03FE0B9
:1053E00007A96E482BF036FB6D4904A8FBF7DEFBDE
:1053F00007A96A4802F0D4FC0028F1DA8DF81060A1
:1054000001A904A82BF026FB002104A827F042FFE5
:1054100004A800F01FFE00285AD0604824385D49D7
:105420000A6802604A684260097A0172584890F836
:10543000842859490F3901F6B340FAF7C6FE04A98A
:105440005648243813F0A8FD564890F8A50E80F071
:105450008001544880F8A51E022C39D0052537E07C
:105460004B4890F8710F00F0040088B34B48243883
:1054700048490A6802604A684260097A01724448F1
:1054800090F8842844490F3901F6B340FAF79DFE9D
:105490000421444880F8A51E00F6DB6100F6A560F3
:1054A00013F07AFD3D491B31A1F13F0013F074FD6B
:1054B00000213A48243827F0EDFE3A4890F8A50E2E
:1054C00080F08001374880F8A51E022C00D01125FD
:1054D000002D5BD031492439A1F1B20017F07EF8DC
:1054E00000202B4981F8310F10E00CF0E3FE25F08D
:1054F00065FF2948A1384078A84200D10DE0244832
:1055000090F8310F401C224981F8310F204890F863
:10551000311F90F862078142E7DB00BF1C48D0F8DA
:10552000710F40F004001A49C1F8710F1B483F3851
:105530000168079141680891007A8DF824001748A6
:105540003F3800F11B010A6802604A684260097A2C
:1055500001720F4890F884280F490F3901F6CE40A8
:10556000FAF733FEFBF7A8FC0C483F3807990160B7
:10557000089941609DF8241001721CB100F11B01D3
:10558000FBF714FB0120024981F8690F00BFD2E646
:1055900068290020CCBC03086A3B00203148002069
:1055A000D5BC0308683900202DE9F0410026FE48EB
:1055B00090F84F5F90F84F1F90F8D003814204D1CC
:1055C00011F00AFB0120BDE8F081F74890F8330F95
:1055D00008B10020F7E728460CF0DEFE0446102C48
:1055E00001DB0020EFE7022C03D1F048007800280F
:1055F00002DD0020EE490870EB4890F8230F40B31D
:105600000E2C1ED131F082FC0020E74981F8230FD7
:105610000021E848A0F8821E002001F015FF0020BC
:10562000E5490870E548807A401EE5490978081A7E
:10563000E349087009783031C8B206F087FD0120CF
:10564000C1E7062C05D00021DA48A0F8821E01200F
:10565000B9E70B2C30D006DC012C7DD0022C7CD09D
:10566000062C7BD1F8E00C2C79D00D2C78D00E2CA8
:10567000F7D1CD48B0F8790F00F47060D0B1CA48C6
:10568000B0F8790F00F47060B0F5706F12D00C2292
:105690000421084602F064F8C848807A401EC849D0
:1056A0000978081AC64908704720BF49A1F8790F40
:1056B000012088E7002086E7BB48B0F8790F43282F
:1056C00004D0B948B0F8790F45284FD1B64890F8C2
:1056D000250F80F08000B44981F8250F2022102189
:1056E000B848FAF784FDB849D1F88000FAF7C5FD4B
:1056F0000746B548D0F880103A46B248FAF765FD3B
:10570000A94890F8250F00F0800098B1A64890F8BD
:10571000200F411CAB48C01D2FF08EFC2D20A94945
:105720000872A14890F8200F4100A64809302FF0D8
:105730009EFC0EE00121A348C01D2FF07DFC2D2012
:10574000A0490872984890F8201F9E4809302FF011
:105750008EFC0422114604E048E02CE09AE307E0C6
:105760008CE1984805F0A8FC01202CE700202AE7EE
:105770008D48B0F8790F472806D08B48B0F8790FDC
:105780004FF24501884214D1874890F8710F00F01C
:10579000100070B18D4890F8DC0600F0200018B1C0
:1057A000032001F097FC02E0022001F093FC0120AD
:1057B00009E7002007E77C48B0F8790F432813D1A8
:1057C000794890F8F603401C7949097808437849EC
:1057D0000870012001F082F97548007880F080009F
:1057E000734908700120EEE60020ECE66E4890F860
:1057F000FA0300F0200068B36C48007850BB6A4898
:10580000B0F8710F00F4006088B901F0BDFF6E4977
:10581000D1F8E4070422114605F04EFC6248D0F8A6
:10582000710F40F400606049C1F8710F10E001F0A1
:10583000ABFF6549D1F8E8070422114605F03CFCAE
:105840005948D0F8710F20F400605749C1F8710F22
:105850000120B8E60020B6E65948007858B1524811
:10586000B0F8790F00F4706028B94F4890F8230F12
:1058700008B90020A7E64C48B0F8790F47287DD139
:105880004948B0F96F0FA0F29310F0B1932802D0FD
:10589000942874D10CE0444890F8F503401E4C491C
:1058A000088026F015FA002001F0CEFD01208AE6DE
:1058B0003D4890F8F503401E4549088026F008FA57
:1058C000002001F0C1FD01207DE631F01FFB002228
:1058D000114640A005F0F0FB0322404939480FF083
:1058E000DDF900203749887100220521354805F08F
:1058F000E3FB00220C213AA005F0DEFB032237492E
:10590000091D30480FF0CAF900202E498871002285
:1059100011212C4805F0D0FB0122002132A005F016
:10592000CBFB03222D490C3126480FF0B7F900209C
:105930002449887101220521224805F0BDFB01227E
:105940000C212BA005F0B8FB0322244910311D487F
:105950000FF0A4F900201B49887101221121194878
:1059600005F0AAFB0222002123A005F0A5FB0322DB
:105970001A49083113480FF091F901E07CE072E018
:10598000002010498871022205210E4805F094FB81
:1059900002220C211AA005F08FFB03220F491431BB
:1059A00008480FF07BF92FE068290020BD02002095
:1059B000C002002068390020B90200205060002099
:1059C000BB02002013610020F8AA030868590020D8
:1059D000B0020020486561643D000000E5480020F9
:1059E000526561643D00000046726F6D3D0000002D
:1059F000456E64203D0000004E6578743D00000057
:105A00004D4158203D0000000020FE4988710222CF
:105A10001121FC4805F050FB002415E0E1B2002004
:105A20000FF0E8F8F7480EF0FDFAF74991F85B1F20
:105A300001F0040109B1062100E004210846F14902
:105A400014F05CF8601C04B2032CE7DB002001F0CA
:105A5000FBFCED48D0F8710F40F48020EA49C1F812
:105A6000710F0120AFE5E948007818B12020E64920
:105A700081F8330F0020A6E50020A4E5E24890F865
:105A8000250F20F08000E04981F8250F002081F8E3
:105A9000230FDE48007838B10822DD49DD482AF0BE
:105AA00053FF0EF0A9FF03E00020D749A1F86F0FC4
:105AB000D54890F8480F78B1D348B0F86F0F012857
:105AC0000AD0D148B0F86F0F052805D00E20CE4976
:105AD00081F8330F002076E5CB48B0F8790F4528E0
